{
  "address": "0xC27979Cc635947f22af603DC9F77250631651996",
  "abi": [
    {
      "inputs": [],
      "stateMutability": "nonpayable",
      "type": "constructor"
    },
    {
      "inputs": [
        {
          "internalType": "address",
          "name": "owner",
          "type": "address"
        }
      ],
      "name": "OwnableInvalidOwner",
      "type": "error"
    },
    {
      "inputs": [
        {
          "internalType": "address",
          "name": "account",
          "type": "address"
        }
      ],
      "name": "OwnableUnauthorizedAccount",
      "type": "error"
    },
    {
      "inputs": [],
      "name": "ReentrancyGuardReentrantCall",
      "type": "error"
    },
    {
      "anonymous": false,
      "inputs": [
        {
          "indexed": true,
          "internalType": "uint256",
          "name": "gameId",
          "type": "uint256"
        }
      ],
      "name": "GameCancelled",
      "type": "event"
    },
    {
      "anonymous": false,
      "inputs": [
        {
          "indexed": true,
          "internalType": "uint256",
          "name": "gameId",
          "type": "uint256"
        },
        {
          "indexed": true,
          "internalType": "address",
          "name": "player1",
          "type": "address"
        }
      ],
      "name": "GameCreated",
      "type": "event"
    },
    {
      "anonymous": false,
      "inputs": [
        {
          "indexed": true,
          "internalType": "uint256",
          "name": "gameId",
          "type": "uint256"
        },
        {
          "indexed": true,
          "internalType": "address",
          "name": "winner",
          "type": "address"
        },
        {
          "indexed": false,
          "internalType": "bool",
          "name": "isDraw",
          "type": "bool"
        }
      ],
      "name": "GameFinished",
      "type": "event"
    },
    {
      "anonymous": false,
      "inputs": [
        {
          "indexed": true,
          "internalType": "uint256",
          "name": "gameId",
          "type": "uint256"
        },
        {
          "indexed": true,
          "internalType": "address",
          "name": "player1",
          "type": "address"
        },
        {
          "indexed": true,
          "internalType": "address",
          "name": "player2",
          "type": "address"
        }
      ],
      "name": "GameJoined",
      "type": "event"
    },
    {
      "anonymous": false,
      "inputs": [
        {
          "indexed": true,
          "internalType": "uint256",
          "name": "gameId",
          "type": "uint256"
        },
        {
          "indexed": true,
          "internalType": "address",
          "name": "player",
          "type": "address"
        },
        {
          "indexed": false,
          "internalType": "uint8",
          "name": "x",
          "type": "uint8"
        },
        {
          "indexed": false,
          "internalType": "uint8",
          "name": "y",
          "type": "uint8"
        },
        {
          "indexed": false,
          "internalType": "enum Gomoku.PieceType",
          "name": "pieceType",
          "type": "uint8"
        }
      ],
      "name": "MoveMade",
      "type": "event"
    },
    {
      "anonymous": false,
      "inputs": [
        {
          "indexed": true,
          "internalType": "address",
          "name": "previousOwner",
          "type": "address"
        },
        {
          "indexed": true,
          "internalType": "address",
          "name": "newOwner",
          "type": "address"
        }
      ],
      "name": "OwnershipTransferred",
      "type": "event"
    },
    {
      "inputs": [],
      "name": "BOARD_SIZE",
      "outputs": [
        {
          "internalType": "uint8",
          "name": "",
          "type": "uint8"
        }
      ],
      "stateMutability": "view",
      "type": "function"
    },
    {
      "inputs": [],
      "name": "WIN_CONDITION",
      "outputs": [
        {
          "internalType": "uint8",
          "name": "",
          "type": "uint8"
        }
      ],
      "stateMutability": "view",
      "type": "function"
    },
    {
      "inputs": [
        {
          "internalType": "uint256",
          "name": "gameId",
          "type": "uint256"
        }
      ],
      "name": "cancelGame",
      "outputs": [],
      "stateMutability": "nonpayable",
      "type": "function"
    },
    {
      "inputs": [],
      "name": "createGame",
      "outputs": [
        {
          "internalType": "uint256",
          "name": "",
          "type": "uint256"
        }
      ],
      "stateMutability": "nonpayable",
      "type": "function"
    },
    {
      "inputs": [],
      "name": "createPracticeGame",
      "outputs": [
        {
          "internalType": "uint256",
          "name": "",
          "type": "uint256"
        }
      ],
      "stateMutability": "nonpayable",
      "type": "function"
    },
    {
      "inputs": [
        {
          "internalType": "uint256",
          "name": "",
          "type": "uint256"
        },
        {
          "internalType": "uint256",
          "name": "",
          "type": "uint256"
        }
      ],
      "name": "gameMoves",
      "outputs": [
        {
          "internalType": "uint8",
          "name": "x",
          "type": "uint8"
        },
        {
          "internalType": "uint8",
          "name": "y",
          "type": "uint8"
        },
        {
          "internalType": "address",
          "name": "player",
          "type": "address"
        },
        {
          "internalType": "enum Gomoku.PieceType",
          "name": "pieceType",
          "type": "uint8"
        },
        {
          "internalType": "uint256",
          "name": "timestamp",
          "type": "uint256"
        }
      ],
      "stateMutability": "view",
      "type": "function"
    },
    {
      "inputs": [
        {
          "internalType": "uint256",
          "name": "",
          "type": "uint256"
        }
      ],
      "name": "games",
      "outputs": [
        {
          "internalType": "uint256",
          "name": "gameId",
          "type": "uint256"
        },
        {
          "internalType": "address",
          "name": "player1",
          "type": "address"
        },
        {
          "internalType": "address",
          "name": "player2",
          "type": "address"
        },
        {
          "internalType": "address",
          "name": "currentPlayer",
          "type": "address"
        },
        {
          "internalType": "enum Gomoku.GameStatus",
          "name": "status",
          "type": "uint8"
        },
        {
          "internalType": "address",
          "name": "winner",
          "type": "address"
        },
        {
          "internalType": "uint256",
          "name": "createdAt",
          "type": "uint256"
        },
        {
          "internalType": "uint256",
          "name": "lastMoveAt",
          "type": "uint256"
        },
        {
          "internalType": "uint8",
          "name": "moveCount",
          "type": "uint8"
        },
        {
          "internalType": "bool",
          "name": "isPracticeMode",
          "type": "bool"
        }
      ],
      "stateMutability": "view",
      "type": "function"
    },
    {
      "inputs": [
        {
          "internalType": "uint256",
          "name": "gameId",
          "type": "uint256"
        }
      ],
      "name": "getBoard",
      "outputs": [
        {
          "internalType": "enum Gomoku.PieceType[15][15]",
          "name": "",
          "type": "uint8[15][15]"
        }
      ],
      "stateMutability": "view",
      "type": "function"
    },
    {
      "inputs": [
        {
          "internalType": "uint256",
          "name": "gameId",
          "type": "uint256"
        }
      ],
      "name": "getGame",
      "outputs": [
        {
          "components": [
            {
              "internalType": "uint256",
              "name": "gameId",
              "type": "uint256"
            },
            {
              "internalType": "address",
              "name": "player1",
              "type": "address"
            },
            {
              "internalType": "address",
              "name": "player2",
              "type": "address"
            },
            {
              "internalType": "address",
              "name": "currentPlayer",
              "type": "address"
            },
            {
              "internalType": "enum Gomoku.GameStatus",
              "name": "status",
              "type": "uint8"
            },
            {
              "internalType": "address",
              "name": "winner",
              "type": "address"
            },
            {
              "internalType": "uint256",
              "name": "createdAt",
              "type": "uint256"
            },
            {
              "internalType": "uint256",
              "name": "lastMoveAt",
              "type": "uint256"
            },
            {
              "internalType": "enum Gomoku.PieceType[15][15]",
              "name": "board",
              "type": "uint8[15][15]"
            },
            {
              "internalType": "uint8",
              "name": "moveCount",
              "type": "uint8"
            },
            {
              "internalType": "bool",
              "name": "isPracticeMode",
              "type": "bool"
            }
          ],
          "internalType": "struct Gomoku.Game",
          "name": "",
          "type": "tuple"
        }
      ],
      "stateMutability": "view",
      "type": "function"
    },
    {
      "inputs": [
        {
          "internalType": "uint256",
          "name": "gameId",
          "type": "uint256"
        }
      ],
      "name": "getGameMoves",
      "outputs": [
        {
          "components": [
            {
              "internalType": "uint8",
              "name": "x",
              "type": "uint8"
            },
            {
              "internalType": "uint8",
              "name": "y",
              "type": "uint8"
            },
            {
              "internalType": "address",
              "name": "player",
              "type": "address"
            },
            {
              "internalType": "enum Gomoku.PieceType",
              "name": "pieceType",
              "type": "uint8"
            },
            {
              "internalType": "uint256",
              "name": "timestamp",
              "type": "uint256"
            }
          ],
          "internalType": "struct Gomoku.Move[]",
          "name": "",
          "type": "tuple[]"
        }
      ],
      "stateMutability": "view",
      "type": "function"
    },
    {
      "inputs": [
        {
          "internalType": "address",
          "name": "player",
          "type": "address"
        }
      ],
      "name": "getPlayerGames",
      "outputs": [
        {
          "internalType": "uint256[]",
          "name": "",
          "type": "uint256[]"
        }
      ],
      "stateMutability": "view",
      "type": "function"
    },
    {
      "inputs": [
        {
          "internalType": "address",
          "name": "player",
          "type": "address"
        }
      ],
      "name": "getPlayerStats",
      "outputs": [
        {
          "internalType": "uint256",
          "name": "wins",
          "type": "uint256"
        },
        {
          "internalType": "uint256",
          "name": "losses",
          "type": "uint256"
        }
      ],
      "stateMutability": "view",
      "type": "function"
    },
    {
      "inputs": [],
      "name": "getWaitingGames",
      "outputs": [
        {
          "internalType": "uint256[]",
          "name": "",
          "type": "uint256[]"
        }
      ],
      "stateMutability": "view",
      "type": "function"
    },
    {
      "inputs": [
        {
          "internalType": "uint256",
          "name": "gameId",
          "type": "uint256"
        }
      ],
      "name": "joinGame",
      "outputs": [],
      "stateMutability": "nonpayable",
      "type": "function"
    },
    {
      "inputs": [
        {
          "internalType": "uint256",
          "name": "gameId",
          "type": "uint256"
        },
        {
          "internalType": "uint8[]",
          "name": "xCoords",
          "type": "uint8[]"
        },
        {
          "internalType": "uint8[]",
          "name": "yCoords",
          "type": "uint8[]"
        }
      ],
      "name": "makeBatchMoves",
      "outputs": [],
      "stateMutability": "nonpayable",
      "type": "function"
    },
    {
      "inputs": [
        {
          "internalType": "uint256",
          "name": "gameId",
          "type": "uint256"
        },
        {
          "internalType": "uint8",
          "name": "x",
          "type": "uint8"
        },
        {
          "internalType": "uint8",
          "name": "y",
          "type": "uint8"
        }
      ],
      "name": "makeMove",
      "outputs": [],
      "stateMutability": "nonpayable",
      "type": "function"
    },
    {
      "inputs": [],
      "name": "owner",
      "outputs": [
        {
          "internalType": "address",
          "name": "",
          "type": "address"
        }
      ],
      "stateMutability": "view",
      "type": "function"
    },
    {
      "inputs": [
        {
          "internalType": "address",
          "name": "",
          "type": "address"
        },
        {
          "internalType": "uint256",
          "name": "",
          "type": "uint256"
        }
      ],
      "name": "playerGames",
      "outputs": [
        {
          "internalType": "uint256",
          "name": "",
          "type": "uint256"
        }
      ],
      "stateMutability": "view",
      "type": "function"
    },
    {
      "inputs": [
        {
          "internalType": "address",
          "name": "",
          "type": "address"
        }
      ],
      "name": "playerLosses",
      "outputs": [
        {
          "internalType": "uint256",
          "name": "",
          "type": "uint256"
        }
      ],
      "stateMutability": "view",
      "type": "function"
    },
    {
      "inputs": [
        {
          "internalType": "address",
          "name": "",
          "type": "address"
        }
      ],
      "name": "playerWins",
      "outputs": [
        {
          "internalType": "uint256",
          "name": "",
          "type": "uint256"
        }
      ],
      "stateMutability": "view",
      "type": "function"
    },
    {
      "inputs": [],
      "name": "renounceOwnership",
      "outputs": [],
      "stateMutability": "nonpayable",
      "type": "function"
    },
    {
      "inputs": [
        {
          "internalType": "address",
          "name": "newOwner",
          "type": "address"
        }
      ],
      "name": "transferOwnership",
      "outputs": [],
      "stateMutability": "nonpayable",
      "type": "function"
    },
    {
      "inputs": [
        {
          "internalType": "uint256",
          "name": "",
          "type": "uint256"
        }
      ],
      "name": "waitingGames",
      "outputs": [
        {
          "internalType": "uint256",
          "name": "",
          "type": "uint256"
        }
      ],
      "stateMutability": "view",
      "type": "function"
    }
  ],
  "transactionHash": "0xf5cd56e20c9b31891e5b2ed8dec14c5df1bac8b05a2140ae474f876594d6a2ad",
  "args": [],
  "numDeployments": 1,
  "solcInputHash": "4623fcd687d0e165e472b75fd58cd7b3",
  "bytecode": "0x6080604052600160025534801561001557600080fd5b506001600055338061004157604051631e4fbdf760e01b81526000600482015260240160405180910390fd5b61004a81610050565b506100a2565b600180546001600160a01b038381166001600160a01b0319831681179093556040519116919082907f8be0079c531659141344cd1fd0a4f28419497f9722a3daafe3b4186f6b6457e090600090a35050565b61277580620000b26000396000f3fe608060405234801561001057600080fd5b506004361061014d5760003560e01c806382648139116100c3578063dc4a3e951161007c578063dc4a3e951461039c578063e5426c86146103a4578063efaa55a0146103b7578063f2fde38b146103ca578063f416c389146103dd578063fedb848a146103e557600080fd5b806382648139146103135780638b31fb89146103265780638da5cb5b14610346578063a2f77bcc14610361578063a8ec5b7414610381578063aa57f09c1461038957600080fd5b806345e09e541161011557806345e09e54146102635780634fd66eae1461028357806369958ab9146102ce5780636b280747146102e3578063715018a6146103035780637255d7291461030b57600080fd5b80630a5694c214610152578063117a5b9014610178578063129daf84146102055780631ee2b8a5146102255780632a02ac631461023f575b600080fd5b6101656101603660046120ec565b610405565b6040519081526020015b60405180910390f35b6101ef610186366004612116565b60036020819052600091825260409091208054600182015460028301549383015460048401546005850154600686015460169096015494966001600160a01b0394851696908516958486169560ff600160a01b909604861695941693818116916101009004168a565b60405161016f9a99989796959493929190612159565b6102186102133660046121c3565b610436565b60405161016f91906121e5565b61022d600581565b60405160ff909116815260200161016f565b61025261024d366004612229565b6104a2565b60405161016f95949392919061225b565b610276610271366004612116565b610502565b60405161016f91906122f3565b6102b96102913660046121c3565b6001600160a01b03166000908152600660209081526040808320546007909252909120549091565b6040805192835260208301919091520161016f565b6102e16102dc366004612116565b6105e7565b005b6102f66102f1366004612116565b610740565b60405161016f9190612308565b6102e161083b565b61016561084f565b610165610321366004612116565b610a70565b6101656103343660046121c3565b60066020526000908152604090205481565b6001546040516001600160a01b03909116815260200161016f565b61037461036f366004612116565b610a91565b60405161016f919061238f565b610218610c31565b6102e1610397366004612478565b610c89565b61022d600f81565b6102e16103b2366004612500565b610cab565b6102e16103c5366004612116565b610f8a565b6102e16103d83660046121c3565b611183565b6101656111be565b6101656103f33660046121c3565b60076020526000908152604090205481565b6005602052816000526040600020818154811061042157600080fd5b90600052602060002001600091509150505481565b6001600160a01b03811660009081526005602090815260409182902080548351818402810184019094528084526060939283018282801561049657602002820191906000526020600020905b815481526020019060010190808311610482575b50505050509050919050565b600460205281600052604060002081815481106104be57600080fd5b60009182526020909120600290910201805460019091015460ff80831694506101008304811693506001600160a01b036201000084041692600160b01b9004169085565b61050a611f10565b60008281526003602052604081205490036105405760405162461bcd60e51b81526004016105379061257a565b60405180910390fd5b60008281526003602052604080822081516101e081019092529091600790910190600f90835b828210156105dc57604080516101e08101918290529085840190600f90826000855b82829054906101000a900460ff1660028111156105a7576105a761212f565b815260206001928301818104948501949093039092029101808411610588579050505050505081526020019060010190610566565b505050509050919050565b6105ef6113db565b6000818152600360205260408120805490910361061e5760405162461bcd60e51b81526004016105379061257a565b6000600382810154600160a01b900460ff16908111156106405761064061212f565b1461068d5760405162461bcd60e51b815260206004820152601d60248201527f43616e206f6e6c792063616e63656c2077616974696e672067616d65730000006044820152606401610537565b60018101546001600160a01b031633146106e95760405162461bcd60e51b815260206004820152601760248201527f4f6e6c792063726561746f722063616e2063616e63656c0000000000000000006044820152606401610537565b60038101805460ff60a01b1916600360a01b17905561070782611405565b60405182907f681705fdbd93dba3b679fd712577e9a86d57c5551c520f8c74857deb57f9623f90600090a25061073d6001600055565b50565b6000818152600360205260408120546060910361076f5760405162461bcd60e51b81526004016105379061257a565b600082815260046020908152604080832080548251818502810185019093528083529193909284015b828210156105dc5760008481526020908190206040805160a0810182526002808702909301805460ff808216845261010082048116968401969096526001600160a01b036201000082041693830193909352909390926060850192600160b01b90049091169081111561080d5761080d61212f565b600281111561081e5761081e61212f565b815260200160018201548152505081526020019060010190610798565b6108436114c1565b61084d60006114ee565b565b60006108596113db565b600280546000918261086a836125bd565b9091555060408051610160810182528281523360208201819052600092820183905260608201529192506080820190815260006020820181905242604083015260608201526080016108ba611540565b815260006020808301829052604092830182905284825260038082529183902084518155908401516001820180546001600160a01b03199081166001600160a01b03938416179091559385015160028301805486169183169190911790556060850151828401805495861691909216908117825560808601519294929391926001600160a81b0319161790600160a01b90849081111561095c5761095c61212f565b021790555060a08201516004820180546001600160a01b0319166001600160a01b0390921691909117905560c0820151600582015560e082015160068201556101008201516109b1906007830190600f611f3e565b50610120820151601690910180546101409093015115156101000261ffff1990931660ff9092169190911791909117905533600081815260056020908152604080832080546001818101835591855292842090920185905560088054928301815583527ff3f7a9fe364faab93b216da50a3214154f22a0a2b415b23a84c8169e8b636ee39091018490555183917fc3e0f84839dc888c892a013d10c8f9d6dc05a21a879d0ce468ca558013e9121c91a39050610a6d6001600055565b90565b60088181548110610a8057600080fd5b600091825260209091200154905081565b610a99611f88565b6000828152600360205260408120549003610ac65760405162461bcd60e51b81526004016105379061257a565b6000828152600360208181526040928390208351610160810185528154815260018201546001600160a01b03908116938201939093526002820154831694810194909452808301549182166060850152916080840191600160a01b900460ff1690811115610b3657610b3661212f565b6003811115610b4757610b4761212f565b815260048201546001600160a01b0316602082015260058201546040808301919091526006830154606083015280516101e0810190915260809091019060078301600f6000835b82821015610c0457604080516101e08101918290529085840190600f90826000855b82829054906101000a900460ff166002811115610bcf57610bcf61212f565b815260206001928301818104948501949093039092029101808411610bb0579050505050505081526020019060010190610b8e565b505050908252506016919091015460ff808216602084015261010090910416151560409091015292915050565b60606008805480602002602001604051908101604052809291908181526020018280548015610c7f57602002820191906000526020600020905b815481526020019060010190808311610c6b575b5050505050905090565b610c916113db565b610c9c838383611555565b610ca66001600055565b505050565b610cb36113db565b828114610d0d5760405162461bcd60e51b815260206004820152602260248201527f436f6f7264696e6174657320617272617973206c656e677468206d69736d61746044820152610c6d60f31b6064820152608401610537565b82610d4e5760405162461bcd60e51b8152602060048201526011602482015270139bc81b5bdd995cc81c1c9bdd9a591959607a1b6044820152606401610537565b600a831115610d9f5760405162461bcd60e51b815260206004820152601760248201527f546f6f206d616e79206d6f76657320696e2062617463680000000000000000006044820152606401610537565b60008581526003602052604081208054909103610dce5760405162461bcd60e51b81526004016105379061257a565b6001600382810154600160a01b900460ff1690811115610df057610df061212f565b14610e3d5760405162461bcd60e51b815260206004820152601d60248201527f47616d65206973206e6f7420696e20706c6179696e67207374617475730000006044820152606401610537565b6016810154610100900460ff1615610f1c5760018101546001600160a01b03163314610e7b5760405162461bcd60e51b8152600401610537906125d6565b60005b84811015610f1657610edd87878784818110610e9c57610e9c612619565b9050602002016020810190610eb1919061262f565b868685818110610ec357610ec3612619565b9050602002016020810190610ed8919061262f565b611555565b6002600383810154600160a01b900460ff1690811115610eff57610eff61212f565b14610f165780610f0e816125bd565b915050610e7e565b50610f78565b60405162461bcd60e51b815260206004820152602b60248201527f4261746368206d6f766573206f6e6c7920617661696c61626c6520696e20707260448201526a616374696365206d6f646560a81b6064820152608401610537565b50610f836001600055565b5050505050565b610f926113db565b60008181526003602052604081208054909103610fc15760405162461bcd60e51b81526004016105379061257a565b6000600382810154600160a01b900460ff1690811115610fe357610fe361212f565b146110305760405162461bcd60e51b815260206004820152601f60248201527f47616d65206973206e6f742077616974696e6720666f7220706c6179657273006044820152606401610537565b6001810154336001600160a01b039091160361108e5760405162461bcd60e51b815260206004820152601960248201527f43616e6e6f74206a6f696e20796f7572206f776e2067616d65000000000000006044820152606401610537565b60028101546001600160a01b0316156110e05760405162461bcd60e51b815260206004820152601460248201527311d85b59481a5cc8185b1c9958591e48199d5b1b60621b6044820152606401610537565b6002810180546001600160a01b0319163390811790915560038201805460ff60a01b1916600160a01b17905542600683015560009081526005602090815260408220805460018101825590835291200182905561113c82611405565b600181015460405133916001600160a01b03169084907f8ca5b55df47712c5e59e7aaddc402fc30e6399e3498efec70a7e440bb9d2fac890600090a45061073d6001600055565b61118b6114c1565b6001600160a01b0381166111b557604051631e4fbdf760e01b815260006004820152602401610537565b61073d816114ee565b60006111c86113db565b60028054600091826111d9836125bd565b909155506040805161016081018252828152336020820181905291810182905260608101919091529091506080810160018152600060208201524260408201819052606082015260800161122b611540565b81526000602080830182905260016040938401819052858352600380835292849020855181559185015190820180546001600160a01b03199081166001600160a01b03938416179091559385015160028301805486169183169190911790556060850151828401805495861691909216908117825560808601519294929391926001600160a81b0319161790600160a01b9084908111156112ce576112ce61212f565b021790555060a08201516004820180546001600160a01b0319166001600160a01b0390921691909117905560c0820151600582015560e08201516006820155610100820151611323906007830190600f611f3e565b50610120820151601690910180546101409093015115156101000261ffff1990931660ff9092169190911791909117905533600081815260056020908152604080832080546001810182559084529183209091018490555183917fc3e0f84839dc888c892a013d10c8f9d6dc05a21a879d0ce468ca558013e9121c91a36040513390819083907f8ca5b55df47712c5e59e7aaddc402fc30e6399e3498efec70a7e440bb9d2fac890600090a49050610a6d6001600055565b6002600054036113fe57604051633ee5aeb560e01b815260040160405180910390fd5b6002600055565b60005b6008548110156114bd57816008828154811061142657611426612619565b9060005260206000200154036114ab57600880546114469060019061264a565b8154811061145657611456612619565b90600052602060002001546008828154811061147457611474612619565b60009182526020909120015560088054806114915761149161265d565b600190038181906000526020600020016000905590555050565b806114b5816125bd565b915050611408565b5050565b6001546001600160a01b0316331461084d5760405163118cdaa760e01b8152336004820152602401610537565b600180546001600160a01b038381166001600160a01b0319831681179093556040519116919082907f8be0079c531659141344cd1fd0a4f28419497f9722a3daafe3b4186f6b6457e090600090a35050565b611548611f10565b611550611f10565b919050565b600083815260036020526040812080549091036115845760405162461bcd60e51b81526004016105379061257a565b6001600382810154600160a01b900460ff16908111156115a6576115a661212f565b146115f35760405162461bcd60e51b815260206004820152601d60248201527f47616d65206973206e6f7420696e20706c6179696e67207374617475730000006044820152606401610537565b600f60ff84161080156116095750600f60ff8316105b61164b5760405162461bcd60e51b8152602060048201526013602482015272496e76616c696420636f6f7264696e6174657360681b6044820152606401610537565b6000816007018460ff16600f811061166557611665612619565b018360ff16600f811061167a5761167a612619565b602081049091015460ff601f9092166101000a90041660028111156116a1576116a161212f565b146116ee5760405162461bcd60e51b815260206004820152601960248201527f506f736974696f6e20616c7265616479206f63637570696564000000000000006044820152606401610537565b6016810154610100900460ff16156117315760018101546001600160a01b0316331461172c5760405162461bcd60e51b8152600401610537906125d6565b61177d565b60038101546001600160a01b0316331461177d5760405162461bcd60e51b815260206004820152600d60248201526c2737ba103cb7bab9103a3ab93760991b6044820152606401610537565b6016810154600090610100900460ff16156117bf5760168201546117a69060029060ff16612673565b60ff16156117b55760026117b8565b60015b90506117e0565b60018201546001600160a01b031633146117da5760026117dd565b60015b90505b80826007018560ff16600f81106117f9576117f9612619565b018460ff16600f811061180e5761180e612619565b602091828204019190066101000a81548160ff021916908360028111156118375761183761212f565b021790555060168201805460ff16906000611851836126a3565b91906101000a81548160ff021916908360ff16021790555050428260060181905550600460008681526020019081526020016000206040518060a001604052808660ff1681526020018560ff168152602001336001600160a01b031681526020018360028111156118c4576118c461212f565b81524260209182015282546001810184556000938452928190208251600294850290910180549284015160408501516001600160a01b0316620100000262010000600160b01b031960ff9283166101000261ffff199096169290941691909117939093179182168317815560608401519394909392849260ff60b01b1990911662010000600160b81b03199091161790600160b01b90849081111561196b5761196b61212f565b0217905550608082015181600101555050336001600160a01b0316857f15df732bf30a0a3eb76d718825e3682221d98b34c634d29aaf9e3595b3edd68c8686856040516119ba939291906126c2565b60405180910390a3604080516101e08101909152611a5e9060078401600f6000835b82821015611a5257604080516101e08101918290529085840190600f90826000855b82829054906101000a900460ff166002811115611a1d57611a1d61212f565b8152602060019283018181049485019490930390920291018084116119fe5790505050505050815260200190600101906119dc565b50505050858584611c56565b15611b635760038201805460ff60a01b1916600160a11b1790556004820180546001600160a01b03191633179055601682015460ff61010090910416611b2557336000908152600660205260408120805491611ab9836125bd565b909155505060018201546000906001600160a01b03163314611ae85760018301546001600160a01b0316611af7565b60028301546001600160a01b03165b6001600160a01b0381166000908152600760205260408120805492935090611b1e836125bd565b9190505550505b60405160008152339086907f3c407d684f8e26ac47a42a0e982bc16fe05e96ce344f63a5736ec6c2690d7780906020015b60405180910390a3610f83565b611b6e600f806126e1565b601683015460ff918216911610611bca5760038201805460ff60a01b1916600160a11b1790556040516001815260009086907f3c407d684f8e26ac47a42a0e982bc16fe05e96ce344f63a5736ec6c2690d778090602001611b56565b6016820154610100900460ff1615611bf5576003820180546001600160a01b03191633179055610f83565b60018201546001600160a01b03163314611c1c5760018201546001600160a01b0316611c2b565b60028201546001600160a01b03165b6003830180546001600160a01b03929092166001600160a01b03199092169190911790555050505050565b6040805160c081018252600160808201818152600060a084018190529083528351808501855281815260208181018490528085019190915284518086018652838152808201849052848601528451808601909552918452600019918401919091526060820192909252815b6004811015611f015760016000838360048110611ce057611ce0612619565b60200201515190506000848460048110611cfc57611cfc612619565b60200201516001602002015190506000611d16838b6126fd565b90506000611d24838b6126fd565b90505b60008260000b12158015611d3f5750600f600083900b125b8015611d4f575060008160000b12155b8015611d5f5750600f600082900b125b8015611dbe5750886002811115611d7857611d7861212f565b8c8360ff16600f8110611d8d57611d8d612619565b60200201518260ff16600f8110611da657611da6612619565b60200201516002811115611dbc57611dbc61212f565b145b15611dee5784611dcd816126a3565b9550611ddb905084836126fd565b9150611de783826126fd565b9050611d27565b611df8848c61271e565b9150611e04838b61271e565b90505b60008260000b12158015611e1f5750600f600083900b125b8015611e2f575060008160000b12155b8015611e3f5750600f600082900b125b8015611e9e5750886002811115611e5857611e5861212f565b8c8360ff16600f8110611e6d57611e6d612619565b60200201518260ff16600f8110611e8657611e86612619565b60200201516002811115611e9c57611e9c61212f565b145b15611ece5784611ead816126a3565b9550611ebb9050848361271e565b9150611ec7838261271e565b9050611e07565b600560ff861610611ee9576001975050505050505050611f08565b50505050508080611ef9906125bd565b915050611cc1565b5060009150505b949350505050565b604051806101e00160405280600f905b611f28611ff1565b815260200190600190039081611f205790505090565b82600f8101928215611f78579160200282015b82811115611f78578251611f68908390600f612010565b5091602001919060010190611f51565b50611f849291506120ad565b5090565b604080516101608101825260008082526020820181905291810182905260608101829052906080820190815260200160006001600160a01b031681526020016000815260200160008152602001611fdd611f10565b815260006020820181905260409091015290565b604051806101e00160405280600f906020820280368337509192915050565b6001830191839082156120a15791602002820160005b8382111561207257835183826101000a81548160ff021916908360028111156120515761205161212f565b02179055509260200192600101602081600001049283019260010302612026565b801561209f5782816101000a81549060ff0219169055600101602081600001049283019260010302612072565b505b50611f849291506120c1565b80821115611f8457600081556001016120ad565b80821115611f8457600081556001016120ad565b80356001600160a01b038116811461155057600080fd5b600080604083850312156120ff57600080fd5b612108836120d5565b946020939093013593505050565b60006020828403121561212857600080fd5b5035919050565b634e487b7160e01b600052602160045260246000fd5b600481106121555761215561212f565b9052565b8a81526001600160a01b038a811660208301528981166040830152888116606083015261014082019061218f608084018a612145565b9690961660a082015260c081019490945260e084019290925260ff1661010083015215156101209091015295945050505050565b6000602082840312156121d557600080fd5b6121de826120d5565b9392505050565b6020808252825182820181905260009190848201906040850190845b8181101561221d57835183529284019291840191600101612201565b50909695505050505050565b6000806040838503121561223c57600080fd5b50508035926020909101359150565b600381106121555761215561212f565b60ff8681168252851660208201526001600160a01b038416604082015260a08101612289606083018561224b565b8260808301529695505050505050565b806000805b600f8082106122ad5750610f83565b835186845b838110156122d8576122c582845161224b565b60209283019291909101906001016122b2565b5050506101e09590950194506020929092019160010161229e565b611c2081016123028284612299565b92915050565b602080825282518282018190526000919060409081850190868401855b82811015612382578151805160ff9081168652878201511687860152858101516001600160a01b0316868601526060808201516123648288018261224b565b50506080908101519085015260a09093019290850190600101612325565b5091979650505050505050565b81518152602080830151611d608301916123b3908401826001600160a01b03169052565b5060408301516123ce60408401826001600160a01b03169052565b5060608301516123e960608401826001600160a01b03169052565b5060808301516123fc6080840182612145565b5060a083015161241760a08401826001600160a01b03169052565b5060c083015160c083015260e083015160e08301526101008084015161243f82850182612299565b505061012083015160ff16611d20830152610140830151801515611d408401525b5092915050565b803560ff8116811461155057600080fd5b60008060006060848603121561248d57600080fd5b8335925061249d60208501612467565b91506124ab60408501612467565b90509250925092565b60008083601f8401126124c657600080fd5b50813567ffffffffffffffff8111156124de57600080fd5b6020830191508360208260051b85010111156124f957600080fd5b9250929050565b60008060008060006060868803121561251857600080fd5b85359450602086013567ffffffffffffffff8082111561253757600080fd5b61254389838a016124b4565b9096509450604088013591508082111561255c57600080fd5b50612569888289016124b4565b969995985093965092949392505050565b60208082526013908201527211d85b5948191bd95cc81b9bdd08195e1a5cdd606a1b604082015260600190565b634e487b7160e01b600052601160045260246000fd5b6000600182016125cf576125cf6125a7565b5060010190565b60208082526023908201527f4f6e6c792070726163746963652067616d652063726561746f722063616e206d6040820152626f766560e81b606082015260800190565b634e487b7160e01b600052603260045260246000fd5b60006020828403121561264157600080fd5b6121de82612467565b81810381811115612302576123026125a7565b634e487b7160e01b600052603160045260246000fd5b600060ff83168061269457634e487b7160e01b600052601260045260246000fd5b8060ff84160691505092915050565b600060ff821660ff81036126b9576126b96125a7565b60010192915050565b60ff84811682528316602082015260608101611f08604083018461224b565b60ff8181168382160290811690818114612460576124606125a7565b600081810b9083900b01607f8113607f1982121715612302576123026125a7565b600082810b9082900b03607f198112607f82131715612302576123026125a756fea2646970667358221220858b96e940280cda0cd1f49d4b73df8da9ea8af1ad48feaac871aa0a7b9397eb64736f6c63430008140033",
  "devdoc": {
    "details": "",
    "errors": {
      "OwnableInvalidOwner(address)": [
        {
          "details": "The owner is not a valid owner account. (eg. `address(0)`)"
        }
      ],
      "OwnableUnauthorizedAccount(address)": [
        {
          "details": "The caller account is not authorized to perform an operation."
        }
      ],
      "ReentrancyGuardReentrantCall()": [
        {
          "details": "Unauthorized reentrant call."
        }
      ]
    },
    "kind": "dev",
    "methods": {
      "cancelGame(uint256)": {
        "details": ""
      },
      "createGame()": {
        "details": ""
      },
      "createPracticeGame()": {
        "details": ""
      },
      "getBoard(uint256)": {
        "details": ""
      },
      "getGame(uint256)": {
        "details": ""
      },
      "getGameMoves(uint256)": {
        "details": ""
      },
      "getPlayerGames(address)": {
        "details": ""
      },
      "getPlayerStats(address)": {
        "details": ""
      },
      "getWaitingGames()": {
        "details": ""
      },
      "joinGame(uint256)": {
        "details": ""
      },
      "makeBatchMoves(uint256,uint8[],uint8[])": {
        "details": " - "
      },
      "makeMove(uint256,uint8,uint8)": {
        "details": ""
      },
      "owner()": {
        "details": "Returns the address of the current owner."
      },
      "renounceOwnership()": {
        "details": "Leaves the contract without owner. It will not be possible to call `onlyOwner` functions. Can only be called by the current owner. NOTE: Renouncing ownership will leave the contract without an owner, thereby disabling any functionality that is only available to the owner."
      },
      "transferOwnership(address)": {
        "details": "Transfers ownership of the contract to a new account (`newOwner`). Can only be called by the current owner."
      }
    },
    "title": "Gomoku",
    "version": 1
  },
  "userdoc": {
    "kind": "user",
    "methods": {},
    "version": 1
  },
  "storageLayout": {
    "storage": [
      {
        "astId": 188,
        "contract": "contracts/Gomoku.sol:Gomoku",
        "label": "_status",
        "offset": 0,
        "slot": "0",
        "type": "t_uint256"
      },
      {
        "astId": 8,
        "contract": "contracts/Gomoku.sol:Gomoku",
        "label": "_owner",
        "offset": 0,
        "slot": "1",
        "type": "t_address"
      },
      {
        "astId": 314,
        "contract": "contracts/Gomoku.sol:Gomoku",
        "label": "nextGameId",
        "offset": 0,
        "slot": "2",
        "type": "t_uint256"
      },
      {
        "astId": 319,
        "contract": "contracts/Gomoku.sol:Gomoku",
        "label": "games",
        "offset": 0,
        "slot": "3",
        "type": "t_mapping(t_uint256,t_struct(Game)299_storage)"
      },
      {
        "astId": 325,
        "contract": "contracts/Gomoku.sol:Gomoku",
        "label": "gameMoves",
        "offset": 0,
        "slot": "4",
        "type": "t_mapping(t_uint256,t_array(t_struct(Move)311_storage)dyn_storage)"
      },
      {
        "astId": 330,
        "contract": "contracts/Gomoku.sol:Gomoku",
        "label": "playerGames",
        "offset": 0,
        "slot": "5",
        "type": "t_mapping(t_address,t_array(t_uint256)dyn_storage)"
      },
      {
        "astId": 334,
        "contract": "contracts/Gomoku.sol:Gomoku",
        "label": "playerWins",
        "offset": 0,
        "slot": "6",
        "type": "t_mapping(t_address,t_uint256)"
      },
      {
        "astId": 338,
        "contract": "contracts/Gomoku.sol:Gomoku",
        "label": "playerLosses",
        "offset": 0,
        "slot": "7",
        "type": "t_mapping(t_address,t_uint256)"
      },
      {
        "astId": 341,
        "contract": "contracts/Gomoku.sol:Gomoku",
        "label": "waitingGames",
        "offset": 0,
        "slot": "8",
        "type": "t_array(t_uint256)dyn_storage"
      }
    ],
    "types": {
      "t_address": {
        "encoding": "inplace",
        "label": "address",
        "numberOfBytes": "20"
      },
      "t_array(t_array(t_enum(PieceType)265)15_storage)15_storage": {
        "base": "t_array(t_enum(PieceType)265)15_storage",
        "encoding": "inplace",
        "label": "enum Gomoku.PieceType[15][15]",
        "numberOfBytes": "480"
      },
      "t_array(t_enum(PieceType)265)15_storage": {
        "base": "t_enum(PieceType)265",
        "encoding": "inplace",
        "label": "enum Gomoku.PieceType[15]",
        "numberOfBytes": "32"
      },
      "t_array(t_struct(Move)311_storage)dyn_storage": {
        "base": "t_struct(Move)311_storage",
        "encoding": "dynamic_array",
        "label": "struct Gomoku.Move[]",
        "numberOfBytes": "32"
      },
      "t_array(t_uint256)dyn_storage": {
        "base": "t_uint256",
        "encoding": "dynamic_array",
        "label": "uint256[]",
        "numberOfBytes": "32"
      },
      "t_bool": {
        "encoding": "inplace",
        "label": "bool",
        "numberOfBytes": "1"
      },
      "t_enum(GameStatus)270": {
        "encoding": "inplace",
        "label": "enum Gomoku.GameStatus",
        "numberOfBytes": "1"
      },
      "t_enum(PieceType)265": {
        "encoding": "inplace",
        "label": "enum Gomoku.PieceType",
        "numberOfBytes": "1"
      },
      "t_mapping(t_address,t_array(t_uint256)dyn_storage)": {
        "encoding": "mapping",
        "key": "t_address",
        "label": "mapping(address => uint256[])",
        "numberOfBytes": "32",
        "value": "t_array(t_uint256)dyn_storage"
      },
      "t_mapping(t_address,t_uint256)": {
        "encoding": "mapping",
        "key": "t_address",
        "label": "mapping(address => uint256)",
        "numberOfBytes": "32",
        "value": "t_uint256"
      },
      "t_mapping(t_uint256,t_array(t_struct(Move)311_storage)dyn_storage)": {
        "encoding": "mapping",
        "key": "t_uint256",
        "label": "mapping(uint256 => struct Gomoku.Move[])",
        "numberOfBytes": "32",
        "value": "t_array(t_struct(Move)311_storage)dyn_storage"
      },
      "t_mapping(t_uint256,t_struct(Game)299_storage)": {
        "encoding": "mapping",
        "key": "t_uint256",
        "label": "mapping(uint256 => struct Gomoku.Game)",
        "numberOfBytes": "32",
        "value": "t_struct(Game)299_storage"
      },
      "t_struct(Game)299_storage": {
        "encoding": "inplace",
        "label": "struct Gomoku.Game",
        "members": [
          {
            "astId": 272,
            "contract": "contracts/Gomoku.sol:Gomoku",
            "label": "gameId",
            "offset": 0,
            "slot": "0",
            "type": "t_uint256"
          },
          {
            "astId": 274,
            "contract": "contracts/Gomoku.sol:Gomoku",
            "label": "player1",
            "offset": 0,
            "slot": "1",
            "type": "t_address"
          },
          {
            "astId": 276,
            "contract": "contracts/Gomoku.sol:Gomoku",
            "label": "player2",
            "offset": 0,
            "slot": "2",
            "type": "t_address"
          },
          {
            "astId": 278,
            "contract": "contracts/Gomoku.sol:Gomoku",
            "label": "currentPlayer",
            "offset": 0,
            "slot": "3",
            "type": "t_address"
          },
          {
            "astId": 281,
            "contract": "contracts/Gomoku.sol:Gomoku",
            "label": "status",
            "offset": 20,
            "slot": "3",
            "type": "t_enum(GameStatus)270"
          },
          {
            "astId": 283,
            "contract": "contracts/Gomoku.sol:Gomoku",
            "label": "winner",
            "offset": 0,
            "slot": "4",
            "type": "t_address"
          },
          {
            "astId": 285,
            "contract": "contracts/Gomoku.sol:Gomoku",
            "label": "createdAt",
            "offset": 0,
            "slot": "5",
            "type": "t_uint256"
          },
          {
            "astId": 287,
            "contract": "contracts/Gomoku.sol:Gomoku",
            "label": "lastMoveAt",
            "offset": 0,
            "slot": "6",
            "type": "t_uint256"
          },
          {
            "astId": 294,
            "contract": "contracts/Gomoku.sol:Gomoku",
            "label": "board",
            "offset": 0,
            "slot": "7",
            "type": "t_array(t_array(t_enum(PieceType)265)15_storage)15_storage"
          },
          {
            "astId": 296,
            "contract": "contracts/Gomoku.sol:Gomoku",
            "label": "moveCount",
            "offset": 0,
            "slot": "22",
            "type": "t_uint8"
          },
          {
            "astId": 298,
            "contract": "contracts/Gomoku.sol:Gomoku",
            "label": "isPracticeMode",
            "offset": 1,
            "slot": "22",
            "type": "t_bool"
          }
        ],
        "numberOfBytes": "736"
      },
      "t_struct(Move)311_storage": {
        "encoding": "inplace",
        "label": "struct Gomoku.Move",
        "members": [
          {
            "astId": 301,
            "contract": "contracts/Gomoku.sol:Gomoku",
            "label": "x",
            "offset": 0,
            "slot": "0",
            "type": "t_uint8"
          },
          {
            "astId": 303,
            "contract": "contracts/Gomoku.sol:Gomoku",
            "label": "y",
            "offset": 1,
            "slot": "0",
            "type": "t_uint8"
          },
          {
            "astId": 305,
            "contract": "contracts/Gomoku.sol:Gomoku",
            "label": "player",
            "offset": 2,
            "slot": "0",
            "type": "t_address"
          },
          {
            "astId": 308,
            "contract": "contracts/Gomoku.sol:Gomoku",
            "label": "pieceType",
            "offset": 22,
            "slot": "0",
            "type": "t_enum(PieceType)265"
          },
          {
            "astId": 310,
            "contract": "contracts/Gomoku.sol:Gomoku",
            "label": "timestamp",
            "offset": 0,
            "slot": "1",
            "type": "t_uint256"
          }
        ],
        "numberOfBytes": "64"
      },
      "t_uint256": {
        "encoding": "inplace",
        "label": "uint256",
        "numberOfBytes": "32"
      },
      "t_uint8": {
        "encoding": "inplace",
        "label": "uint8",
        "numberOfBytes": "1"
      }
    }
  }
}